{
  "contractName": "Aurea",
  "abi": [
    {
      "anonymous": false,
      "inputs": [
        {
          "indexed": true,
          "internalType": "uint256",
          "name": "projectId",
          "type": "uint256"
        },
        {
          "indexed": false,
          "internalType": "address",
          "name": "founder",
          "type": "address"
        }
      ],
      "name": "FundsWithdrawn",
      "type": "event"
    },
    {
      "anonymous": false,
      "inputs": [
        {
          "indexed": true,
          "internalType": "uint256",
          "name": "projectId",
          "type": "uint256"
        },
        {
          "indexed": true,
          "internalType": "address",
          "name": "investor",
          "type": "address"
        },
        {
          "indexed": false,
          "internalType": "uint256",
          "name": "amount",
          "type": "uint256"
        }
      ],
      "name": "Invested",
      "type": "event"
    },
    {
      "anonymous": false,
      "inputs": [
        {
          "indexed": false,
          "internalType": "address",
          "name": "investor",
          "type": "address"
        },
        {
          "indexed": false,
          "internalType": "uint256",
          "name": "projectId",
          "type": "uint256"
        },
        {
          "indexed": false,
          "internalType": "uint256",
          "name": "equityShare",
          "type": "uint256"
        }
      ],
      "name": "NFTMinted",
      "type": "event"
    },
    {
      "anonymous": false,
      "inputs": [
        {
          "indexed": true,
          "internalType": "uint256",
          "name": "projectId",
          "type": "uint256"
        },
        {
          "indexed": true,
          "internalType": "address",
          "name": "founder",
          "type": "address"
        }
      ],
      "name": "ProjectCreated",
      "type": "event"
    },
    {
      "inputs": [],
      "name": "cashOutFee",
      "outputs": [
        {
          "internalType": "uint256",
          "name": "",
          "type": "uint256"
        }
      ],
      "stateMutability": "view",
      "type": "function",
      "constant": true
    },
    {
      "inputs": [],
      "name": "equityReserve",
      "outputs": [
        {
          "internalType": "uint256",
          "name": "",
          "type": "uint256"
        }
      ],
      "stateMutability": "view",
      "type": "function",
      "constant": true
    },
    {
      "inputs": [],
      "name": "platformFee",
      "outputs": [
        {
          "internalType": "uint256",
          "name": "",
          "type": "uint256"
        }
      ],
      "stateMutability": "view",
      "type": "function",
      "constant": true
    },
    {
      "inputs": [],
      "name": "projectCount",
      "outputs": [
        {
          "internalType": "uint256",
          "name": "",
          "type": "uint256"
        }
      ],
      "stateMutability": "view",
      "type": "function",
      "constant": true
    },
    {
      "inputs": [
        {
          "internalType": "uint256",
          "name": "",
          "type": "uint256"
        }
      ],
      "name": "projects",
      "outputs": [
        {
          "internalType": "address",
          "name": "founder",
          "type": "address"
        },
        {
          "internalType": "string",
          "name": "name",
          "type": "string"
        },
        {
          "internalType": "uint256",
          "name": "fundingGoal",
          "type": "uint256"
        },
        {
          "internalType": "uint256",
          "name": "totalRaised",
          "type": "uint256"
        },
        {
          "internalType": "uint256",
          "name": "valuation",
          "type": "uint256"
        },
        {
          "internalType": "uint256",
          "name": "equityOffered",
          "type": "uint256"
        },
        {
          "internalType": "uint256",
          "name": "deadline",
          "type": "uint256"
        },
        {
          "internalType": "bool",
          "name": "isOpen",
          "type": "bool"
        },
        {
          "internalType": "bool",
          "name": "isSuccessful",
          "type": "bool"
        }
      ],
      "stateMutability": "view",
      "type": "function",
      "constant": true
    },
    {
      "inputs": [
        {
          "internalType": "string",
          "name": "_name",
          "type": "string"
        },
        {
          "internalType": "uint256",
          "name": "_fundingGoal",
          "type": "uint256"
        },
        {
          "internalType": "uint256",
          "name": "_valuation",
          "type": "uint256"
        },
        {
          "internalType": "uint256",
          "name": "_equityOffered",
          "type": "uint256"
        },
        {
          "internalType": "uint256",
          "name": "_durationDays",
          "type": "uint256"
        }
      ],
      "name": "createProject",
      "outputs": [],
      "stateMutability": "nonpayable",
      "type": "function"
    },
    {
      "inputs": [
        {
          "internalType": "uint256",
          "name": "projectId",
          "type": "uint256"
        }
      ],
      "name": "invest",
      "outputs": [],
      "stateMutability": "payable",
      "type": "function",
      "payable": true
    },
    {
      "inputs": [
        {
          "internalType": "uint256",
          "name": "projectId",
          "type": "uint256"
        }
      ],
      "name": "withdrawFunds",
      "outputs": [],
      "stateMutability": "nonpayable",
      "type": "function"
    },
    {
      "inputs": [
        {
          "internalType": "uint256",
          "name": "projectId",
          "type": "uint256"
        }
      ],
      "name": "distributeProfits",
      "outputs": [],
      "stateMutability": "payable",
      "type": "function",
      "payable": true
    }
  ],
  "bytecode": "0x60806040526005600055600a6001556002805534801561001e57600080fd5b506116d38061002e6000396000f3fe6080604052600436106100855760003560e01c806326232a2e1161005957806326232a2e1461014c5780632afcf4801461017757806336fbad26146101935780639a969768146101be578063c386b072146101da57610085565b8062d828a51461008a578063107046bd146100b5578063155dd5ee146100fa5780631fe9a8d514610123575b600080fd5b34801561009657600080fd5b5061009f610205565b6040516100ac9190610b2c565b60405180910390f35b3480156100c157600080fd5b506100dc60048036038101906100d79190610b87565b61020b565b6040516100f199989796959493929190610ca0565b60405180910390f35b34801561010657600080fd5b50610121600480360381019061011c9190610b87565b61031b565b005b34801561012f57600080fd5b5061014a60048036038101906101459190610e69565b61059c565b005b34801561015857600080fd5b506101616106ca565b60405161016e9190610b2c565b60405180910390f35b610191600480360381019061018c9190610b87565b6106d0565b005b34801561019f57600080fd5b506101a8610946565b6040516101b59190610b2c565b60405180910390f35b6101d860048036038101906101d39190610b87565b61094c565b005b3480156101e657600080fd5b506101ef610b0d565b6040516101fc9190610b2c565b60405180910390f35b60025481565b60036020528060005260406000206000915090508060000160009054906101000a900473ffffffffffffffffffffffffffffffffffffffff169080600101805461025490610f2f565b80601f016020809104026020016040519081016040528092919081815260200182805461028090610f2f565b80156102cd5780601f106102a2576101008083540402835291602001916102cd565b820191906000526020600020905b8154815290600101906020018083116102b057829003601f168201915b5050505050908060020154908060030154908060040154908060050154908060060154908060070160009054906101000a900460ff16908060070160019054906101000a900460ff16905089565b60006003600083815260200190815260200160002090508060000160009054906101000a900473ffffffffffffffffffffffffffffffffffffffff1673ffffffffffffffffffffffffffffffffffffffff163373ffffffffffffffffffffffffffffffffffffffff16146103c4576040517f08c379a00000000000000000000000000000000000000000000000000000000081526004016103bb90610fac565b60405180910390fd5b80600201548160030154101561040f576040517f08c379a000000000000000000000000000000000000000000000000000000000815260040161040690611018565b60405180910390fd5b8060070160009054906101000a900460ff16610460576040517f08c379a000000000000000000000000000000000000000000000000000000000815260040161045790611084565b60405180910390fd5b60008160070160006101000a81548160ff02191690831515021790555060018160070160016101000a81548160ff0219169083151502179055506000606460015483600301546104b091906110d3565b6104ba9190611144565b905060008183600301546104ce9190611175565b90503073ffffffffffffffffffffffffffffffffffffffff166108fc839081150290604051600060405180830381858888f19350505050158015610516573d6000803e3d6000fd5b503373ffffffffffffffffffffffffffffffffffffffff166108fc829081150290604051600060405180830381858888f1935050505015801561055d573d6000803e3d6000fd5b50837f6141b54b56b8a52a8c6f5cd2a857f6117b18ffbf4d46bd3106f300a839cbf5ea3360405161058e91906111a9565b60405180910390a250505050565b600460008154809291906105af906111c4565b919050555060006003600060045481526020019081526020016000209050338160000160006101000a81548173ffffffffffffffffffffffffffffffffffffffff021916908373ffffffffffffffffffffffffffffffffffffffff1602179055508581600101908161062191906113b8565b50848160020181905550838160040181905550828160050181905550620151808261064c91906110d3565b42610657919061148a565b816006018190555060018160070160006101000a81548160ff0219169083151502179055503373ffffffffffffffffffffffffffffffffffffffff166004547f63c92f9505d420bff631cb9df33be952bdc11e2118da36a850b43e6bcc4ce4de60405160405180910390a3505050505050565b60005481565b60006003600083815260200190815260200160002090508060070160009054906101000a900460ff16610738576040517f08c379a000000000000000000000000000000000000000000000000000000000815260040161072f9061150a565b60405180910390fd5b8060060154421061077e576040517f08c379a000000000000000000000000000000000000000000000000000000000815260040161077590611576565b60405180910390fd5b600034116107c1576040517f08c379a00000000000000000000000000000000000000000000000000000000081526004016107b8906115e2565b60405180910390fd5b60008160080160003373ffffffffffffffffffffffffffffffffffffffff1673ffffffffffffffffffffffffffffffffffffffff16815260200190815260200160002090503481600001600082825461081a919061148a565b9250508190555034826003016000828254610835919061148a565b9250508190555060008160010154036108ae5781600901339080600181540180825580915050600190039060005260206000200160009091909190916101000a81548173ffffffffffffffffffffffffffffffffffffffff021916908373ffffffffffffffffffffffffffffffffffffffff1602179055505b61271082600201546108c091906110d3565b6064836005015483600001546108d691906110d3565b6108e091906110d3565b6108ea9190611144565b81600101819055503373ffffffffffffffffffffffffffffffffffffffff16837f85e040b1b514c2f60555b8b931138cd55218c914496a8fcf822858bd240df422346040516109399190610b2c565b60405180910390a3505050565b60045481565b60006003600083815260200190815260200160002090508060000160009054906101000a900473ffffffffffffffffffffffffffffffffffffffff1673ffffffffffffffffffffffffffffffffffffffff163373ffffffffffffffffffffffffffffffffffffffff16146109f5576040517f08c379a00000000000000000000000000000000000000000000000000000000081526004016109ec9061164e565b60405180910390fd5b60005b8160090180549050811015610b08576000826009018281548110610a1f57610a1e61166e565b5b9060005260206000200160009054906101000a900473ffffffffffffffffffffffffffffffffffffffff169050600060648460080160008473ffffffffffffffffffffffffffffffffffffffff1673ffffffffffffffffffffffffffffffffffffffff1681526020019081526020016000206001015434610aa091906110d3565b610aaa9190611144565b90508173ffffffffffffffffffffffffffffffffffffffff166108fc829081150290604051600060405180830381858888f19350505050158015610af2573d6000803e3d6000fd5b5050508080610b00906111c4565b9150506109f8565b505050565b60015481565b6000819050919050565b610b2681610b13565b82525050565b6000602082019050610b416000830184610b1d565b92915050565b6000604051905090565b600080fd5b600080fd5b610b6481610b13565b8114610b6f57600080fd5b50565b600081359050610b8181610b5b565b92915050565b600060208284031215610b9d57610b9c610b51565b5b6000610bab84828501610b72565b91505092915050565b600073ffffffffffffffffffffffffffffffffffffffff82169050919050565b6000610bdf82610bb4565b9050919050565b610bef81610bd4565b82525050565b600081519050919050565b600082825260208201905092915050565b60005b83811015610c2f578082015181840152602081019050610c14565b60008484015250505050565b6000601f19601f8301169050919050565b6000610c5782610bf5565b610c618185610c00565b9350610c71818560208601610c11565b610c7a81610c3b565b840191505092915050565b60008115159050919050565b610c9a81610c85565b82525050565b600061012082019050610cb6600083018c610be6565b8181036020830152610cc8818b610c4c565b9050610cd7604083018a610b1d565b610ce46060830189610b1d565b610cf16080830188610b1d565b610cfe60a0830187610b1d565b610d0b60c0830186610b1d565b610d1860e0830185610c91565b610d26610100830184610c91565b9a9950505050505050505050565b600080fd5b600080fd5b7f4e487b7100000000000000000000000000000000000000000000000000000000600052604160045260246000fd5b610d7682610c3b565b810181811067ffffffffffffffff82111715610d9557610d94610d3e565b5b80604052505050565b6000610da8610b47565b9050610db48282610d6d565b919050565b600067ffffffffffffffff821115610dd457610dd3610d3e565b5b610ddd82610c3b565b9050602081019050919050565b82818337600083830152505050565b6000610e0c610e0784610db9565b610d9e565b905082815260208101848484011115610e2857610e27610d39565b5b610e33848285610dea565b509392505050565b600082601f830112610e5057610e4f610d34565b5b8135610e60848260208601610df9565b91505092915050565b600080600080600060a08688031215610e8557610e84610b51565b5b600086013567ffffffffffffffff811115610ea357610ea2610b56565b5b610eaf88828901610e3b565b9550506020610ec088828901610b72565b9450506040610ed188828901610b72565b9350506060610ee288828901610b72565b9250506080610ef388828901610b72565b9150509295509295909350565b7f4e487b7100000000000000000000000000000000000000000000000000000000600052602260045260246000fd5b60006002820490506001821680610f4757607f821691505b602082108103610f5a57610f59610f00565b5b50919050565b7f4e6f7420796f75722070726f6a65637400000000000000000000000000000000600082015250565b6000610f96601083610c00565b9150610fa182610f60565b602082019050919050565b60006020820190508181036000830152610fc581610f89565b9050919050565b7f476f616c206e6f74207265616368656400000000000000000000000000000000600082015250565b6000611002601083610c00565b915061100d82610fcc565b602082019050919050565b6000602082019050818103600083015261103181610ff5565b9050919050565b7f416c726561647920636c6f736564000000000000000000000000000000000000600082015250565b600061106e600e83610c00565b915061107982611038565b602082019050919050565b6000602082019050818103600083015261109d81611061565b9050919050565b7f4e487b7100000000000000000000000000000000000000000000000000000000600052601160045260246000fd5b60006110de82610b13565b91506110e983610b13565b92508282026110f781610b13565b9150828204841483151761110e5761110d6110a4565b5b5092915050565b7f4e487b7100000000000000000000000000000000000000000000000000000000600052601260045260246000fd5b600061114f82610b13565b915061115a83610b13565b92508261116a57611169611115565b5b828204905092915050565b600061118082610b13565b915061118b83610b13565b92508282039050818111156111a3576111a26110a4565b5b92915050565b60006020820190506111be6000830184610be6565b92915050565b60006111cf82610b13565b91507fffffffffffffffffffffffffffffffffffffffffffffffffffffffffffffffff8203611201576112006110a4565b5b600182019050919050565b60008190508160005260206000209050919050565b60006020601f8301049050919050565b600082821b905092915050565b60006008830261126e7fffffffffffffffffffffffffffffffffffffffffffffffffffffffffffffffff82611231565b6112788683611231565b95508019841693508086168417925050509392505050565b6000819050919050565b60006112b56112b06112ab84610b13565b611290565b610b13565b9050919050565b6000819050919050565b6112cf8361129a565b6112e36112db826112bc565b84845461123e565b825550505050565b600090565b6112f86112eb565b6113038184846112c6565b505050565b5b818110156113275761131c6000826112f0565b600181019050611309565b5050565b601f82111561136c5761133d8161120c565b61134684611221565b81016020851015611355578190505b61136961136185611221565b830182611308565b50505b505050565b600082821c905092915050565b600061138f60001984600802611371565b1980831691505092915050565b60006113a8838361137e565b9150826002028217905092915050565b6113c182610bf5565b67ffffffffffffffff8111156113da576113d9610d3e565b5b6113e48254610f2f565b6113ef82828561132b565b600060209050601f8311600181146114225760008415611410578287015190505b61141a858261139c565b865550611482565b601f1984166114308661120c565b60005b8281101561145857848901518255600182019150602085019450602081019050611433565b868310156114755784890151611471601f89168261137e565b8355505b6001600288020188555050505b505050505050565b600061149582610b13565b91506114a083610b13565b92508282019050808211156114b8576114b76110a4565b5b92915050565b7f50726f6a656374206e6f74206f70656e00000000000000000000000000000000600082015250565b60006114f4601083610c00565b91506114ff826114be565b602082019050919050565b60006020820190508181036000830152611523816114e7565b9050919050565b7f446561646c696e65207061737365640000000000000000000000000000000000600082015250565b6000611560600f83610c00565b915061156b8261152a565b602082019050919050565b6000602082019050818103600083015261158f81611553565b9050919050565b7f4d75737420696e76657374206120706f73697469766520616d6f756e74000000600082015250565b60006115cc601d83610c00565b91506115d782611596565b602082019050919050565b600060208201905081810360008301526115fb816115bf565b9050919050565b7f4f6e6c7920666f756e6465720000000000000000000000000000000000000000600082015250565b6000611638600c83610c00565b915061164382611602565b602082019050919050565b600060208201905081810360008301526116678161162b565b9050919050565b7f4e487b7100000000000000000000000000000000000000000000000000000000600052603260045260246000fdfea2646970667358221220879bfc27a341474d3224e782f551047294b2129cf9421b562a77203563b6572d64736f6c63430008130033",
  "immutableReferences": {},
  "source": "// SPDX-License-Identifier: MIT\r\npragma solidity ^0.8.0;\r\n\r\ncontract Aurea {\r\n    \r\n    struct Project {\r\n        address founder;\r\n        string name;\r\n        uint256 fundingGoal;\r\n        uint256 totalRaised;\r\n        uint256 valuation;\r\n        uint256 equityOffered; // in %\r\n        uint256 deadline;\r\n        bool isOpen;\r\n        bool isSuccessful;\r\n        mapping(address => Investor) investors;\r\n        address[] investorList;\r\n    }\r\n\r\n    struct Investor {\r\n        uint256 amount;\r\n        uint256 equityShare; // e.g., 0.5% of equity\r\n        bool hasClaimedNFT;\r\n    }\r\n\r\n    uint256 public platformFee = 5;\r\n    uint256 public cashOutFee = 10;\r\n    uint256 public equityReserve = 2; // % equity kept by the platform\r\n\r\n    mapping(uint256 => Project) public projects;\r\n    uint256 public projectCount;\r\n\r\n    // Events\r\n    event ProjectCreated(uint256 indexed projectId, address indexed founder);\r\n    event Invested(uint256 indexed projectId, address indexed investor, uint256 amount);\r\n    event NFTMinted(address investor, uint256 projectId, uint256 equityShare);\r\n    event FundsWithdrawn(uint256 indexed projectId, address founder);\r\n\r\n    // Create a new fundraising project\r\n    function createProject(\r\n        string memory _name,\r\n        uint256 _fundingGoal,\r\n        uint256 _valuation,\r\n        uint256 _equityOffered,\r\n        uint256 _durationDays\r\n    ) public {\r\n        projectCount++;\r\n        Project storage p = projects[projectCount];\r\n        p.founder = msg.sender;\r\n        p.name = _name;\r\n        p.fundingGoal = _fundingGoal;\r\n        p.valuation = _valuation;\r\n        p.equityOffered = _equityOffered;\r\n        p.deadline = block.timestamp + (_durationDays * 1 days);\r\n        p.isOpen = true;\r\n\r\n        emit ProjectCreated(projectCount, msg.sender);\r\n    }\r\n\r\n    // Investors send ETH to participate\r\n    function invest(uint256 projectId) public payable {\r\n        Project storage p = projects[projectId];\r\n        require(p.isOpen, \"Project not open\");\r\n        require(block.timestamp < p.deadline, \"Deadline passed\");\r\n        require(msg.value > 0, \"Must invest a positive amount\");\r\n\r\n        Investor storage investor = p.investors[msg.sender];\r\n        investor.amount += msg.value;\r\n        p.totalRaised += msg.value;\r\n\r\n        if (investor.equityShare == 0) {\r\n            p.investorList.push(msg.sender);\r\n        }\r\n\r\n        investor.equityShare = (investor.amount * p.equityOffered * 100) / (p.fundingGoal * 10000);\r\n\r\n        emit Invested(projectId, msg.sender, msg.value);\r\n    }\r\n\r\n    // // Mint NFT manually (can be automated or delegated to another contract)\r\n    // function claimNFT(uint256 projectId) public {\r\n    //     Project storage p = projects[projectId];\r\n    //     Investor storage investor = p.investors[msg.sender];\r\n    //     require(investor.amount > 0, \"Not an investor\");\r\n    //     require(!investor.hasClaimedNFT, \"Already claimed\");\r\n\r\n    //     // Here you'd call your NFT contract (external) to mint the NFT\r\n    //     // Ex: NFTContract.mint(msg.sender, metadata)\r\n\r\n    //     investor.hasClaimedNFT = true;\r\n    //     emit NFTMinted(msg.sender, projectId, investor.equityShare);\r\n    // }\r\n\r\n    // Founder can withdraw funds if goal reached\r\n    function withdrawFunds(uint256 projectId) public {\r\n        Project storage p = projects[projectId];\r\n        require(msg.sender == p.founder, \"Not your project\");\r\n        require(p.totalRaised >= p.fundingGoal, \"Goal not reached\");\r\n        require(p.isOpen, \"Already closed\");\r\n\r\n        p.isOpen = false;\r\n        p.isSuccessful = true;\r\n\r\n        uint256 platformCut = (p.totalRaised * cashOutFee) / 100;\r\n        uint256 amountToFounder = p.totalRaised - platformCut;\r\n\r\n        // Platform receives fee\r\n        payable(address(this)).transfer(platformCut);\r\n\r\n        // Founder receives remaining funds\r\n        payable(msg.sender).transfer(amountToFounder);\r\n\r\n        emit FundsWithdrawn(projectId, msg.sender);\r\n    }\r\n\r\n    // Optional: distribute rewards / profits\r\n    function distributeProfits(uint256 projectId) public payable {\r\n        Project storage p = projects[projectId];\r\n        require(msg.sender == p.founder, \"Only founder\");\r\n\r\n        for (uint i = 0; i < p.investorList.length; i++) {\r\n            address inv = p.investorList[i];\r\n            uint256 reward = (msg.value * p.investors[inv].equityShare) / 100;\r\n            payable(inv).transfer(reward);\r\n        }\r\n    }\r\n}\r\n",
  "sourcePath": "C:\\Users\\RobinGOUMY\\Documents\\GitHub\\PBW-2025\\contracts\\EquityMarketplace.sol",
  "compiler": {
    "name": "solc",
    "version": "0.8.19+commit.7dd6d404.Emscripten.clang"
  },
  "schemaVersion": "3.4.16",
  "updatedAt": "2025-04-06T12:50:14.059Z",
  "networkType": "ethereum",
  "devdoc": {
    "kind": "dev",
    "methods": {},
    "version": 1
  },
  "userdoc": {
    "kind": "user",
    "methods": {},
    "version": 1
  }
}